:0700000002003312008E32F2
:04000B0012005E324F
:05001300C28CC28E3218
:04001B001200793224
:0F00330075812FC22075900078007900758901C2
:0F004200758805758C00758A00758DF0758B00BB
:0E00510075A88F02005475A80075880022085B
:0E005F00B80E05D22063885022E92406B2D6DE
:0E006D0010D601F922E924605001F922C220C8
:0F007B006388507800091168117212009B8990F8
:10008A0012009B22102005D28C02009AD28EB22036
:05009A0022E9C4F92277
:00000001FF
